S01700004763634170706C69636174696F6E302E737265635C
S11300000C9434000C9449000C9449000C9449005D
S11300100C9449000C9449000C9449000C94490038
S11300200C9449000C9449000C9449000C94490028
S11300300C9449000C9449000C9449000C94490018
S11300400C9449000C9449000C9449000C94490008
S11300500C9449000C9449000C9449000C944900F8
S11300600C9449000C94490011241FBECFEFD8E032
S1130070DEBFCDBF11E0A0E0B1E0EEE4F2E002C0EB
S113008005900D92A032B107D9F70E940A010C9491
S113009025010C94000095B19F70282F207F922B8E
S11300A095B995B19D7F95B995B19B7F95B995B15A
S11300B0986095B935E03A95F1F7000095B1977FCE
S11300C095B9EFE1F3E03197F1F700C0000025B1F5
S11300D0F0E18F9FC0011124922F9F70892B85B965
S11300E085B1886085B935E03A95F1F7000085B1AE
S11300F0877F85B98FE39FE10197F1F700C0000086
S1130100089595B19F70282F207F922B95B995B1B2
S1130110926095B995B19B7F95B995B1986095B961
S113012035E03A95F1F7000095B1977F95B9EFE185
S1130130F3E03197F1F700C0000025B1F0E18F9FA3
S1130140C0011124922F9F70892B85B985B18860D5
S113015085B935E03A95F1F7000085B1877F85B917
S11301608FE39FE10197F1F700C0000008950F931A
S11301701F93CF93DF938C01C0E0D0E003C00E94B3
S113018081002196F801EC0FFD1F80818111F7CFCA
S1130190DF91CF911F910F910895811108C06031B3
S11301A030F4862F8F7080680E944B000895813050
S11301B039F4603128F4862F8F70806C0E944B00D4
S11301C008952FEF89EF90E0215080409040E1F7AF
S11301D000C0000082E00E944B0088E20E944B00B5
S11301E08CE00E944B0086E00E944B0081E00E945C
S11301F04B002FEF83EC99E0215080409040E1F7D1
S113020000C00000089587E880937A0080E480931A
S11302107C0008958FEF84B90E94E1000E940301DD
S113022080E091E00E94B70060E081E00E94CD0090
S11302308FE091E00E94B7006BE081E00E94CD0066
S11102408EE091E00E94B700F7CFF894FFCF54
S113024E4C7578204D65746572204C44523A0049C1
S113025E6E74656E736974793A202020206C780070
S9030000FC
