:100000000C9434000C9447010C9490010C94510012
:100010000C9451000C9451000C9451000C9451001C
:100020000C9451000C9451000C9451000C9451000C
:100030000C9451000C9451000C9451000C945100FC
:100040000C9451000C9451000C9451000C945100EC
:100050000C9451000C9451000C9451000C945100DC
:100060000C9451000C94510011241FBECFEFD8E026
:10007000DEBFCDBF13E0A0E0B1E0ECE6F3E002C0EC
:1000800005900D92A030B107D9F723E0A0E0B3E0CE
:1000900001C01D92A830B207E1F70E94D7000C946E
:1000A000B4010C940000E92FF0E0E050FE4FA08175
:1000B000B0E0A050BE4FE82FF0E0E050FF4FE081ED
:1000C000F0E0E050FF4F692F782F8C9190810895D8
:1000D0009093C5008093C40088E18093C10086E0BE
:1000E0008093C20008959091C00095FFFCCF80934B
:1000F000C6000895CF92DF92EF92FF920F931F9365
:10010000CF93DF93C82ED62EE22EF32E042F152F79
:10011000C0E0D0E02EC08AEA0E9473008C2D0E94BD
:100120007300902F9F708E2D807F890F0E94730027
:10013000902F907F8E2D8F70890F0E947300912FCA
:100140009F708F2D807F890F0E947300912F907F69
:100150008F2D8F70890F0E9473008D2D0E94730068
:100160008C2D8E0D800F8F0D810F8D0D0E947300D1
:100170002196C530D1057CF2DF91CF911F910F916F
:10018000FF90EF90DF90CF90089584B1816084B9A3
:1001900018B810920303109202030895E9E6F0E004
:1001A00080818D6080838DB383608DBB08958FE9DE
:1001B00091E00E9468000E94C5000E94CE008091DC
:1001C0000103813009F05DC0359B1CC085B18160A1
:1001D00085B92091040330910503409106035091A5
:1001E000070360E284E40E947A002FEF80E792E048
:1001F000215080409040E1F700C0000081E08093F2
:1002000000033BC0349B1CC085B1816085B920913F
:10021000040330910503409106035091070362E205
:1002200084E40E947A002FEF80E792E02150804022
:100230009040E1F700C0000081E0809300031DC002
:10024000339B1BC085B1816085B920910403309137
:100250000503409106035091070364E284E40E9481
:100260007A002FEF80E792E0215080409040E1F744
:1002700000C0000081E08093000385B18E7F85B9C6
:100280009ECFF89410920003F894789498CF1F9220
:100290000F920FB60F9211242F933F934F935F93BA
:1002A0006F937F938F939F93AF93BF93EF93FF933E
:1002B00080910003882361F0109201038091020372
:1002C000909103030196909303038093020317C058
:1002D00081E08093010380910203909103030E94C7
:1002E0005300609304037093050380930603909377
:1002F00007038FE295E70197F1F700C00000FF9137
:10030000EF91BF91AF919F918F917F916F915F918D
:100310004F913F912F910F900FBE0F901F90189506
:100320001F920F920FB60F9211242F938F939F93CA
:1003300086E990E0909303038093020385B1816086
:1003400085B980E090E001C00196803325E79207EF
:10035000DCF385B18E7F85B99F918F912F910F909E
:0C0360000FBE0F901F901895F894FFCF6F
:10036C00637C777BF26B6FC53001672BFED7AB7666
:10037C00CA82C97DFA865947F0ADD4A2AF9CA4724B
:10038C00B7FD9326363FD9EAF7CC34A5E5F171D801
:10039C0004C723C3189668059A1280E2EB27B2753E
:1003AC0009832C1A1B6E5AA0523BD6B329E32F8417
:1003BC0053D100ED20FCB15B6ACBBE394A4C58CF0F
:1003CC00D0EFAAFB434D338545F9027F503C9FA8E3
:1003DC0051A3408F929D38F5BCB6DA2110FFF3D2B1
:1003EC00CD0C13EC5F974417C4A77E3D645D197365
:1003FC0060814FDC222A908846EEB814DE5E0BDB5F
:10040C00E0323A0A4906245CC2D3AC629195E47995
:10041C00E7C8376D8DD54EA96C56F4657AAE0815C4
:10042C00BA78252E1CA6B4C6E8DD741F4BBD8B8A8A
:10043C00703EB5664803F60E613557B9C11D9EC0B6
:10044C00E1F89811698E949B1E87E9CE5528DF310F
:10045C008CA1890DBFE64241992D0FB054BB1607F4
:10046C00637C777BF26B6FC53001672BFED7AB7665
:10047C00CA82C97DFA5947F0ADD4A2AF9CA472C010
:10048C00B7FD9326363FF7CC34A5E5F171D831157D
:10049C0004C723C31896059A071280E2EB27B2759E
:1004AC0009832C1A1B6E5AA0523BD6B329E32F8416
:1004BC0053D100ED20FCB15B6ACBBE394A4C58CF0E
:1004CC00D0EFAAFB434D338545F9027F503C9FA8E2
:1004DC0051A3408F929D38F5BCB6DA2110FFF3D2B0
:1004EC00CD0C13EC5F974417C4A77E3D645D197364
:1004FC0060814FDC222A908846EEB814DE5E0BDB5E
:10050C00E0323A0A4906245CC2D3AC629195E47994
:10051C00E7C8376D8DD54EA96C56F4EA657AAE08EE
:10052C00BA78252E1CA6B4C6E8DD741F4BBD8B8A89
:10053C00703EB5664803F60E613557B986C11D9EEF
:10054C00E1F8981169D98E949B1E87E9CE5528DF66
:10055C008CA1890DBFE6426841992D0FB054BB1692
:00000001FF
