S0180000636F6E74726F6C5F736F6C7574696F6E2E737265632F
S11300000C9434000C94AE020C947B020C945100BA
S11300100C9451000C9451000C9451000C94510018
S11300200C9451000C9451000C9451000C94510008
S11300300C9451000C9451000C9451000C945100F8
S11300400C9451000C9451000C9451000C945100E8
S11300500C9451000C9451000C9451000C945100D8
S11300600C9451000C94510011241FBECFEFD8E022
S1130070DEBFCDBF13E0A0E0B1E0EEEAFBE002C0DA
S113008005900D92AC32B107D9F723E0ACE2B3E0AE
S113009001C01D92AE32B207E1F70E94AF010C9489
S11300A0D5050C9400000F931F93E82FE07F962F43
S11300B09F70E90FA42FA07F922F9F70A90F8F70BC
S11300C0607F680F4F70207F240FF0E09E2F8827F9
S11300D0B0E08A0F9B1F10E080179107D0F0005EFC
S11300E01F4F80179107C0F4E050FE4FE081F0E00D
S11300F0E050FE4F8081681312C0A050BF4FEC91B6
S1130100F0E0E050FF4F8081281761F080E090E03C
S11301100BC080E090E008C080E090E005C080E083
S113012090E002C081E090E01F910F9108959093B8
S1130130C5008093C40080E18093C10086E0809371
S1130140C20008958091C0008823E4F78091C6001E
S1130150089595B19F70282F207F922B95B995B162
S11301609D7F95B995B19B7F95B995B1986095B9E7
S113017032E03A95F1F700C095B1977F95B9EFE871
S1130180F1E03197F1F700C0000025B1F0E18F9F55
S1130190C0011124922F9F70892B85B985B1886085
S11301A085B932E03A95F1F700C085B1877F85B90A
S11301B08FE99FE00197F1F700C00000089595B121
S11301C09F70282F207F922B95B995B1926095B995
S11301D095B19B7F95B995B1986095B932E03A9500
S11301E0F1F700C095B1977F95B9EFE8F1E0319749
S11301F0F1F700C0000025B1F0E18F9FC001112488
S1130200922F9F70892B85B985B1886085B932E0BA
S11302103A95F1F700C085B1877F85B98FE99FE0F2
S11302200197F1F700C0000008950F931F93CF9337
S1130230DF938C01C0E0D0E003C00E94DF00219670
S1130240F801EC0FFD1F80818111F7CFDF91CF9171
S11302501F910F910895CF93C82F82958F708A3084
S113026010F0895C01C0805D0E94DF00CF70CA304D
S113027018F087E38C0F02C080E38C0F0E94DF002C
S1130280CF910895811108C0603130F4862F8F70AA
S113029080680E94A9000895813039F4603128F4FF
S11302A0862F8F70806C0E94A900089581E00E94BF
S11302B0A9008FE99FE00197F1F700C0000080E8F2
S11302C00E94A9000895339903C080E388B9089572
S11302D082E288B9089582E288B90895329903C008
S11302E082E188B9089582E288B90895E9E6F0E0E8
S11302F080818F6080838DB383608DBB08958FE38D
S11303009CE90197F1F700C0000082E00E94A90077
S113031088E20E94A9008CE00E94A90086E00E9465
S1130320A90081E00E94A9009FEF21EE84E0915092
S113033020408040E1F700C000000895CF93CFEF44
S1130340C7B90E946B01C4B98FEF90E00E94750594
S113035090932D0380932C037894CF910895CF9399
S1130360DF9300D000D0CDB7DEB78FE991E00E94D3
S113037097000E9476010E949E010E947F0180E006
S113038093E00E94150184E08F9380EB8F938EE0BD
S113039093E09F938F938E010F5F1F4F1F930F93D3
S11303A00E94C20260E081E00E94420181E193E088
S11303B00E941501C8010E9415010F900F900F9023
S11303C00F900F900F900E94A200182F0E94A2007D
S11303D0C82E0E94A200D82E0E94A200E82E0E94DD
S11303E0A200F82E0E94A200B82E0E94A200A82EFD
S11303F0143409F07CC0282F30E08C2D90E0810F5C
S1130400911D8D0D911D8E0D911D8F0D911D8B0DC7
S1130410911D99272817390709F069C000912C0309
S11304202F2D4E2D6D2D8C2D0E945300892B09F4F8
S11304305EC085B1816085B99C2D907F8D2D8F70B4
S1130440792E780E0E2D007F8F2D8F70080F872C3C
S1130450912C982C8824800E911C0E9456018CE1CA
S113046093E00E941501812F0E942B018C2D0E9484
S11304702B018D2D0E942B018E2D0E942B018F2D7F
S11304800E942B018B2D0E942B018A2D0E942B018F
S113049060E081E00E9442018FE193E00E94150137
S11304A0872D0E942B01802F0E942B0184E293E070
S11304B00E9415018B2D0E942B0180E2B81203C00B
S11304C00E9463010BC082E2B81203C00E946B0158
S11304D005C084E2B81202C00E946E0190922D03FE
S11304E080922C03B4018FEF90E00E947B0585B1CC
S11304F08E7F85B968CF1F920F920FB60F92112489
S11305002F933F934F935F936F937F938F939F9317
S1130510AF93BF93EF93FF934D9B03C00E9463017E
S11305200CC04E9904C0339902C0329B03C00E9490
S11305306B0103C04F990E946E01FF91EF91BF912F
S1130540AF919F918F917F916F915F914F913F9167
S11305502F910F900FBE0F901F9018951F920F921E
S11305600FB60F9211248F939F9386E990E0909396
S11305702D0380932C039F918F910F900FBE0F90AA
S11305801F901895AEE0B0E0E8ECF2E00C94AC05F6
S11305900D891E8986E08C831A8309838FEF9FE778
S11305A09E838D83AE01475E5F4F6F89788DCE0148
S11305B001960E94E402EF81F885E00FF11F10829A
S11305C02E96E4E00C94C805ABE0B0E0EAEEF2E06D
S11305D00C949E056C017B018A01FC011782168232
S11305E0838181FFCCC1CE0101963C01F601938148
S11305F0F70193FD859193FF81917F01882309F48D
S1130600BAC1853239F493FD859193FF81917F01BD
S1130610853229F4B60190E00E94DB04E7CF912CE7
S1130620212C312CFFE1F315D8F08B3279F038F41A
S1130630803279F08332A1F4232D20611DC08D32E4
S113064061F0803369F4232D216016C0832D82600C
S1130650382EE32DE4603E2E2AC0F32DF8601DC031
S113066037FC2DC020ED280F2A3040F08E32B9F42B
S113067036FC81C1232D2064322E19C036FE06C0FB
S11306808AE0989E200D1124922E11C0EAE02E9E3D
S1130690200D1124222EF32DF0623F2E08C08C363B
S11306A021F4832D8068382E02C0883641F4F70186
S11306B093FD859193FF81917F018111B3CF982F91
S11306C09F7D9554933028F40C5F1F4F9FE39983CB
S11306D00DC0833631F0833771F0833509F059C08A
S11306E021C0F801808189830E5F1F4F8824839481
S11306F0912C530113C02801F2E04F0E511CF80154
S1130700A080B18036FE03C0692D70E002C06FEF97
S11307107FEFC5010E94D0044C018201F32DFF77C5
S11307203F2E16C0280122E0420E511CF801A08081
S1130730B18036FE03C0692D70E002C06FEF7FEF19
S1130740C5010E94C5044C01F32DF0683F2E8201BF
S113075033FC1BC0822D90E088169906B0F4B601D4
S113076080E290E00E94DB042A94F4CFF50137FC88
S1130770859137FE81915F01B60190E00E94DB0410
S113078021102A9421E0821A91088114910471F7AE
S1130790E8C0843611F0893641F5F80137FE07C008
S11307A060817181828193810C5F1F4F08C06081D9
S11307B07181072E000C880B990B0E5F1F4FF32DD0
S11307C0FF763F2E97FF09C09095809570956195AF
S11307D07F4F8F4F9F4FF0683F2E2AE030E0A301F8
S11307E00E941705882E861845C0853731F4232DBD
S11307F02F7EB22E2AE030E025C0932D997FB92EAA
S11308008F36C1F018F4883579F0B5C0803719F007
S1130810883721F0B0C0E92FE061BE2EB4FE0DC0D0
S1130820FB2DF460BF2E09C034FE0AC0292F2660B8
S1130830B22E06C028E030E005C020E130E002C05E
S113084020E132E0F801B7FE07C060817181828146
S113085093810C5F1F4F06C06081718180E090E03E
S11308600E5F1F4FA3010E941705882E8618FB2DCB
S1130870FF773F2E36FE0DC0232D2E7FA22E891426
S113088058F434FE0BC032FC09C0832D8E7EA82E92
S113089005C0B82CA32C03C0B82C01C0B92CA4FEED
S11308A00FC0FE01E80DF11D8081803321F49A2DE3
S11308B0997EA92E09C0A2FE06C0B394B39404C0C5
S11308C08A2D867809F0B394A3FC11C0A0FE06C05B
S11308D0B21488F4280C922C9B180EC0B21460F445
S11308E0B60180E290E00E94DB04B394F7CFB21427
S11308F018F42B1802C0982C212CA4FE10C0B601A9
S113090080E390E00E94DB04A2FE17C0A1FC03C0B8
S113091088E790E002C088E590E0B6010CC08A2D1B
S1130920867859F0A1FE02C08BE201C080E2A7FCE8
S11309308DE2B60190E00E94DB04891438F4B6011C
S113094080E390E00E94DB049A94F7CF8A94F30149
S1130950E80DF11D8081B60190E00E94DB04811056
S1130960F5CF222009F442CEB60180E290E00E9445
S1130970DB042A94F6CFF6018681978102C08FEFBB
S11309809FEF2B96E2E10C94BA05FC0105906150AF
S113099070400110D8F7809590958E0F9F1F089591
S11309A0FC016150704001900110D8F7809590953A
S11309B08E0F9F1F08950F931F93CF93DF93FB0117
S11309C0238121FD03C08FEF9FEF2CC022FF16C0AF
S11309D046815781248135814217530744F4A0810D
S11309E0B1819D012F5F3F4F318320838C932681FA
S11309F037812F5F3F4F3783268314C08B01EC016F
S1130A00FB010084F185E02D0995892BE1F6D801DD
S1130A1016968D919C911797019617969C938E9399
S1130A201697CE01DF91CF911F910F910895FA018E
S1130A30AA27283051F1203181F1E8946F936E7F19
S1130A406E5F7F4F8F4F9F4FAF4FB1E03ED0B4E00A
S1130A503CD0670F781F891F9A1FA11D680F791F4B
S1130A608A1F911DA11D6A0F711D811D911DA11D5C
S1130A7020D009F468943F912AE0269F112430196C
S1130A80305D3193DEF6CF010895462F4770405D07
S1130A904193B3E00FD0C9F7F6CF462F4F70405DB6
S1130AA04A3318F0495D31FD4052419302D0A9F711
S1130AB0EACFB4E0A6959795879577956795BA950B
S1130AC0C9F700976105710508959B01AC010A2ED1
S1130AD006945795479537952795BA95C9F7620FA8
S1130AE0731F841F951FA01D0895A8E1B0E042E084
S1130AF050E00C9482050E949005272F0C949105D8
S1130B00DC01CB01FC01F999FECF06C0F2BDE1BDC9
S1130B10F89A319600B40D9241505040B8F70895B8
S1130B20262FF999FECF1FBA92BD81BD20BD0FB605
S1130B30F894FA9AF99A0FBE019608952F923F926B
S1130B404F925F926F927F928F929F92AF92BF92D9
S1130B50CF92DF92EF92FF920F931F93CF93DF9385
S1130B60CDB7DEB7CA1BDB0B0FB6F894DEBF0FBEE2
S1130B70CDBF09942A88398848885F846E847D842F
S1130B808C849B84AA84B984C884DF80EE80FD8031
S1130B900C811B81AA81B981CE0FD11D0FB6F894A7
S1110BA0DEBF0FBECDBFED010895F894FFCF68
S1130BAE637C777BF26B6FC53001672BFED7AB7618
S1130BBECA82C97DFA865947F0ADD4A2AF9CA472FD
S1130BCEB7FD9326363FD9EAF7CC34A5E5F171D8B3
S1130BDE04C723C3189668059A1280E2EB27B275F0
S1130BEE09832C1A1B6E5AA0523BD6B329E32F84C9
S1130BFE53D100ED20FCB15B6ACBBE394A4C58CFC1
S1130C0ED0EFAAFB434D338545F9027F503C9FA894
S1130C1E51A3408F929D38F5BCB6DA2110FFF3D262
S1130C2ECD0C13EC5F974417C4A77E3D645D197316
S1130C3E60814FDC222A908846EEB814DE5E0BDB10
S1130C4EE0323A0A4906245CC2D3AC629195E47947
S1130C5EE7C8376D8DD54EA96C56F4657AAE081576
S1130C6EBA78252E1CA6B4C6E8DD741F4BBD8B8A3C
S1130C7E703EB5664803F60E613557B9C11D9EC068
S1130C8EE1F89811698E949B1E87E9CE5528DF31C1
S1130C9E8CA1890DBFE64241992D0FB054BB1607A6
S1130CAE637C777BF26B6FC53001672BFED7AB7617
S1130CBECA82C97DFA5947F0ADD4A2AF9CA472C0C2
S1130CCEB7FD9326363FF7CC34A5E5F171D831152F
S1130CDE04C723C31896059A071280E2EB27B27550
S1130CEE09832C1A1B6E5AA0523BD6B329E32F84C8
S1130CFE53D100ED20FCB15B6ACBBE394A4C58CFC0
S1130D0ED0EFAAFB434D338545F9027F503C9FA893
S1130D1E51A3408F929D38F5BCB6DA2110FFF3D261
S1130D2ECD0C13EC5F974417C4A77E3D645D197315
S1130D3E60814FDC222A908846EEB814DE5E0BDB0F
S1130D4EE0323A0A4906245CC2D3AC629195E47946
S1130D5EE7C8376D8DD54EA96C56F4EA657AAE08A0
S1130D6EBA78252E1CA6B4C6E8DD741F4BBD8B8A3B
S1130D7E703EB5664803F60E613557B986C11D9EA1
S1130D8EE1F8981169D98E949B1E87E9CE5528DF18
S1130D9E8CA1890DBFE6426841992D0FB054BB1644
S1130DAE576F726B696E67206F6E2E2E2E00256440
S1130DBE0042617564726174653A2000433A004BD7
S10F0DCE65793A0020436D643A2000006F
S9030000FC
