S0120000486172647761726554582E7372656338
S11300000C9434000C9405010C944D010C94510093
S11300100C9451000C9451000C9451000C94510018
S11300200C9451000C9451000C9451000C94510008
S11300300C9451000C9451000C9451000C945100F8
S11300400C9451000C9451000C9451000C945100E8
S11300500C9451000C9451000C9451000C945100D8
S11300600C9451000C94510011241FBECFEFD8E022
S1130070DEBFCDBF12E0A0E0B1E0E6E2F3E002C0F3
S113008005900D92A030B107D9F722E0A0E0B2E0CC
S113009001C01D92A530B207E1F70E94A2000C94A2
S11300A091010C940000FC01E050FF4FE081F0E06E
S11300B0E050FF4F2081982F8827820F911D0895CB
S11300C09093C5008093C40088E18093C10086E0CA
S11300D08093C20008959091C00095FFFCCF809357
S11300E0C60008950F931F93CF93DF93D82F162F35
S11300F0C42F052F8AEA0E946B008D2F0E946B008B
S1130100802F0E946B008C2F0E946B00812F0E9415
S11301106B00802F8D0F8C0F810F0E946B00DF917D
S1130120CF911F910F91089584B1816084B918B85B
S11301300895E9E6F0E080818D6080838DB383606B
S11301408DBB089581E896E00E9460000E949400AF
S11301500E94990080910102813009F051C0349BC2
S113016018C085B1816085B94091020250910302A3
S113017060E284E40E9472002FEF80E792E0215055
S113018080409040E1F700C0000081E080930002CD
S113019033C0329B18C085B1816085B94091020299
S11301A05091030262E284E40E9472002FEF80E720
S11301B092E0215080409040E1F700C0000081E0CF
S11301C08093000219C0309B17C085B1816085B946
S11301D0409102025091030264E284E40E9472009E
S11301E02FEF80E792E0215080409040E1F700C07B
S11301F0000081E08093000285B18E7F85B9AACF8B
S1130200F894109200027894A5CF1F920F920FB623
S11302100F9211242F933F934F935F936F937F9388
S11302208F939F93AF93BF93EF93FF9380910002BB
S1130230882361F010920102609104026F5F609361
S1130240040280E090E00E947F0116C081E0809368
S1130250010280E090E00E9477018093040290E024
S11302600E94530090930302809302028FE295E769
S11302700197F1F700C00000FF91EF91BF91AF919A
S11302809F918F917F916F915F914F913F912F91AA
S11302900F900FBE0F901F9018951F920F920FB6DC
S11302A00F9211242F933F934F935F936F937F93F8
S11302B08F939F93AF93BF93EF93FF9386E98093BC
S11302C0040266E980E090E00E947F01FF91EF91D3
S11302D0BF91AF919F918F917F916F915F914F915A
S11302E03F912F910F900FBE0F901F901895F99981
S11302F0FECF92BD81BDF89A992780B50895262F27
S1130300F999FECF92BD81BDF89A019700B4021607
S113031039F01FBA20BD0FB6F894FA9AF99A0FBEB5
S10903200895F894FFCFDC
S1130326637C777BF26B6FC53001672BFED7AB76A8
S1130336CA82C97DFA5947F0ADD4A2AF9CA472C053
S1130346B7FD9326363FF7CC34A5E5F171D83115C0
S113035604C723C31896059A071280E2EB27B275E1
S113036609832C1A1B6E5AA0523BD6B329E32F8459
S113037653D100ED20FCB15B6ACBBE394A4C58CF51
S1130386D0EFAAFB434D338545F9027F503C9FA825
S113039651A3408F929D38F5BCB6DA2110FFF3D2F3
S11303A6CD0C13EC5F974417C4A77E3D645D1973A7
S11303B660814FDC222A908846EEB814DE5E0BDBA1
S11303C6E0323A0A4906245CC2D3AC629195E479D8
S11303D6E7C8376D8DD54EA96C56F4EA657AAE0832
S11303E6BA78252E1CA6B4C6E8DD741F4BBD8B8ACD
S11303F6703EB5664803F60E613557B986C11D9E33
S1130406E1F8981169D98E949B1E87E9CE5528DFA9
S11304168CA1890DBFE6426841992D0FB054BB16D5
S9030000FC
