:100000000C9434000C942D020C9451020C94510069
:100010000C9451000C9451000C9451000C9451001C
:100020000C9451000C9451000C9451000C9451000C
:100030000C9451000C9451000C9451000C945100FC
:100040000C9451000C9451000C9451000C945100EC
:100050000C9451000C9451000C9451000C945100DC
:100060000C9451000C94510011241FBECFEFD8E026
:10007000DEBFCDBF12E0A0E0B1E0E8EFF4E002C0E7
:1000800005900D92A032B107D9F722E0A0E2B2E0CC
:1000900001C01D92A132B207E1F70E94AD010C949C
:1000A0007A020C940000242F30E02F3D3105ACF48F
:1000B000841768F190E0205E3F4F8217930754F554
:1000C000FC01E050FF4FE081F0E0E050FF4F808105
:1000D000861323C081E090E008952F3D310504F19F
:1000E000841738F4482F50E0205E3F4F42175307E3
:1000F000D4F4E82FF0E0E050FF4FE081F0E0E05072
:10010000FF4F8081681312C081E090E0089580E085
:1001100090E0089580E090E0089580E090E00895F8
:1001200080E090E0089580E090E0089580E090E025
:1001300008959093C5008093C40080E18093C1002E
:1001400086E08093C20008958091C0008823E4F780
:100150008091C600089595B19F70282F207F922B23
:1001600095B995B19D7F95B995B19B7F95B995B19D
:10017000986095B932E03A95F1F700C095B1977F54
:1001800095B9EFE8F1E03197F1F700C0000025B133
:10019000F0E18F9FC0011124922F9F70892B85B9A8
:1001A00085B1886085B932E03A95F1F700C085B134
:1001B000877F85B98FE99FE00197F1F700C00000C4
:1001C000089595B19F70282F207F922B95B995B1F6
:1001D000926095B995B19B7F95B995B1986095B9A5
:1001E00032E03A95F1F700C095B1977F95B9EFE805
:1001F000F1E03197F1F700C0000025B1F0E18F9FE9
:10020000C0011124922F9F70892B85B985B1886018
:1002100085B932E03A95F1F700C085B1877F85B99D
:100220008FE99FE00197F1F700C0000008950F9358
:100230001F93CF93DF938C01C0E0D0E003C00E94F6
:10024000E1002196F801EC0FFD1F80818111F7CFAD
:10025000DF91CF911F910F910895CF93C82F829571
:100260008F708A3010F0895C01C0805D0E94E100CF
:10027000CF70CA3018F087E38C0F02C080E38C0F78
:100280000E94E100CF910895811108C0603130F4DF
:10029000862F8F7080680E94AB000895813039F4FA
:1002A000603128F4862F8F70806C0E94AB00089517
:1002B00081E00E94AB008FE99FE00197F1F700C059
:1002C000000080E80E94AB000895339903C081E0EC
:1002D00088B9089582E088B9089582E088B90895C0
:1002E000349903C084E088B9089582E088B90895FC
:1002F000E9E6F0E080818F6080838DB383608DBB01
:1003000008958FE39CE90197F1F700C0000082E0B7
:100310000E94AB0088E20E94AB008CE00E94AB0020
:1003200086E00E94AB0081E00E94AB009FEF21EECF
:1003300084E0915020408040E1F700C00000089523
:1003400080E090E00E946002809320028FEF87B9E6
:1003500092E098B984B97894089581E896E00E9473
:1003600099000E9478010E94A0010E94810180E012
:1003700092E00E9417010E94A400C82F0E94A400CE
:10038000D82F0E94A400182F0E94A400082F0E94BA
:10039000A400F82E282F30E08D2F90E08C0F911DB7
:1003A000810F911D800F911D99272817390709F09A
:1003B00050C0C43409F04DC040912002612F8D2FF0
:1003C0000E945300892B09F444C088B1806288B927
:1003D0000E9458018EE092E00E9417018C2F0E942B
:1003E0002D018D2F0E942D01812F0E942D01802F24
:1003F0000E942D018F2D0E942D0160E081E00E945E
:10040000440184E192E00E941701809120020E9441
:100410002D018AE192E00E9417018D2F0E942D018B
:100420006D2F80E090E00E946802003219F40E9473
:10043000650109C0023219F40E946D0104C0043242
:1004400011F40E94700180E090E00E9460028093AD
:10045000200288B18F7D88B98ECF1F920F920FB680
:100460000F9211242F933F934F935F936F937F933A
:100470008F939F93AF93BF93EF93FF930E946D0170
:10048000FF91EF91BF91AF919F918F917F916F916C
:100490005F914F913F912F910F900FBE0F901F9042
:1004A00018951F920F920FB60F9211248F9386E921
:1004B000809320028F910F900FBE0F901F90189580
:1004C000F999FECF92BD81BDF89A992780B508951C
:1004D000262FF999FECF92BD81BDF89A019700B4FD
:1004E000021639F01FBA20BD0FB6F894FA9AF99A9D
:0804F0000FBE0895F894FFCF40
:1004F800637C777BF26B6FC53001672BFED7AB76D9
:10050800CA82C97DFA5947F0ADD4A2AF9CA472C083
:10051800B7FD9326363FF7CC34A5E5F171D83115F0
:1005280004C723C31896059A071280E2EB27B27511
:1005380009832C1A1B6E5AA0523BD6B329E32F8489
:1005480053D100ED20FCB15B6ACBBE394A4C58CF81
:10055800D0EFAAFB434D338545F9027F503C9FA855
:1005680051A3408F929D38F5BCB6DA2110FFF3D223
:10057800CD0C13EC5F974417C4A77E3D645D1973D7
:1005880060814FDC222A908846EEB814DE5E0BDBD1
:10059800E0323A0A4906245CC2D3AC629195E47908
:1005A800E7C8376D8DD54EA96C56F4EA657AAE0862
:1005B800BA78252E1CA6B4C6E8DD741F4BBD8B8AFD
:1005C800703EB5664803F60E613557B986C11D9E63
:1005D800E1F8981169D98E949B1E87E9CE5528DFDA
:1005E8008CA1890DBFE6426841992D0FB054BB1606
:1005F800576F726B696E67206F6E2E2E2E00436FD9
:1006080064653A004C6173743A00204E6F773A0083
:00000001FF
